:100000000C94A7000C94BC000C94BC000C94BC0095
:100010000C94BC000C94BC000C94BC000C94BC0070
:100020000C94BC000C94BC000C94BC000C94BC0060
:100030000C94BC000C94BC000C94BC000C94BC0050
:100040000C94BC000C94BC000C94BC000C94BC0040
:100050000C94BC0000407A10F35A00A0724E1809AC
:100060000010A5D4E80000E87648170000E40B541F
:10007000020000CA9A3B000000E1F50500008096EE
:100080009800000040420F000000A0860100000020
:10009000102700000000E8030000000064000000DA
:1000A00000000A00000000000100000000002C76A3
:1000B000D888DC674F0823DFC1DFAE59E1B1B796BE
:1000C000E5E3E453C63AE651997696E8E6C284261B
:1000D000EB898C9B62ED407C6FFCEFBC9C9F40F2F7
:1000E000BAA56FA5F490055A2AF75C936B6CF96773
:1000F0006DC11BFCE0E40D47FEF520E6B500D0ED38
:10010000902E0300943577050080841E080000209F
:100110004E0A000000C80C333333330F986E12833D
:100120001141EF8D2114893BE65516CFFEE6DB1811
:10013000D1844B381BF77C1D901DA4BBE4242032D6
:1001400084725E228100C9F124ECA1E53D271124CF
:100150001FBECFE5D8E0DEBFCDBF11E0A0E6B0E026
:10016000ECE1F4E502C005900D92AA38B107D9F789
:100170000E946B0A0C940C2A0C940000A0E3B0E0DF
:10018000E4ECF0E00C943527A8E04E010894811CC3
:10019000911CF401BA2F1192BA95E9F729833A8399
:1001A0004B835C836D837E838F839887CE01099612
:1001B000FC011192AA95E9F7A986BA86CB86DC865E
:1001C000ED86FE860F87188B29813A814B815C81F1
:1001D0002DA73EA74FA758AB79018A018FEF9FEF5C
:1001E000A0E0B0E0E822F9220A231B231A014424EC
:1001F000552429853A854B855C8529A73AA74BA7C5
:100200005CA759016A01A822B922CA22DB223A015D
:1002100088249924C601B501A80197010E941627D8
:100220006DA37EA38FA398A7C401B3010E941627D4
:1002300069A37AA38BA39CA3C601B501A201910176
:100240000E9416277B018C01C401B3010E9416276E
:100250005B016C0189A19AA1ABA1BCA18E0D9F1D70
:10026000A01FB11F89A39AA3ABA3BCA32DA13EA13C
:100270004FA158A5CA01AA27BB2729A13AA14BA182
:100280005CA1280F391F4A1F5B1F29A33AA34BA368
:100290005CA32E153F054007510740F480E090E035
:1002A000A1E0B0E0A80EB91ECA1EDB1E89A19AA16A
:1002B000ABA1BCA19D01442755272A0D3B1D4C1D18
:1002C0005D1D2D8F3E8F4F8F58A36C01BB24AA2438
:1002D0008DA19EA1AFA1B8A5A070B070A80EB91E47
:1002E000CA1EDB1EA98EBA8ECB8EDC8E9A8C8B8CAE
:1002F0007C8C9E8D6F8D78A1FE01719688E0DF0168
:100300001D928A95E9F72D8B9E8B6F8B788F2D85AB
:100310003E854F8558896DA57EA58FA598A90E9419
:1003200016277B018C012D813E814F81588569A55F
:100330007AA58BA59CA50E941627E60EF71E081F1E
:10034000191F6D897E898F89988D6E0D7F1D801F85
:10035000911F6D8B7E8B8F8B988FEE892A2D392D77
:10036000482D572D7E2F8F89988DE096E2E10C94D1
:100370005127EF92FF920F93DF93CF93CDB7DEB764
:1003800060970FB6F894DEBF0FBECDBFA82F002335
:1003900009F461C07E010894E11CF11C88E0F701BA
:1003A00011928A95E9F729833A834B835C836D83A5
:1003B0007E83AF83988780E2801BE82FFF27E7FDCD
:1003C000F09549815A816B817C81181684F01986D9
:1003D0001A861B861C86882799278E1B9F0B04C0B4
:1003E000440F551F661F771F8A95D2F728C0202F0C
:1003F000332727FD3095DB01CA01022E04C0880F88
:10040000991FAA1FBB1F0A94D2F789879A87AB87C7
:10041000BC8704C07695679557954795EA95D2F7BE
:100420008D819E81AF81B88504C0880F991FAA1F56
:10043000BB1F2A95D2F7482B592B6A2B7B2B4D8754
:100440005E876F87788B29853A854B855C856D85BE
:100450007E85AF8598898A2F60960FB6F894DEBFA7
:100460000FBECDBFCF91DF910F91FF90EF90089518
:10047000EF92FF920F931F937B018C0120E030E0FD
:1004800040E05FE40E94DF0688238CF0C801B701DA
:1004900020E030E040E05FE40E94AB040E949D0752
:1004A0009B01AC01205030404040504806C0C8017C
:1004B000B7010E949D079B01AC01B901CA011F91C0
:1004C0000F91FF90EF900895A4E0B0E0EAE6F2E02B
:1004D0000C94372749015A016B017C01D501C401F5
:1004E0009C01AD01550F220B322FA901881599F4FB
:1004F000991589F4AA1579F4BB1569F42C1559F4EA
:100500002D1549F42E1539F42F1529F4C501B40120
:100510000E943F07D0C09401A501B601C70100E2C7
:100520000E94F107C901A42FB52FB7FF07C0B095EE
:10053000A095909581959F4FAF4FBF4F803020E0A1
:10054000920721E0A20720E0B20780F48F3F9105D7
:10055000A105B10531F028F028E030E040E050E09E
:1005600016C020E030E040E050E011C0803030E0C4
:10057000930730E0A30731E0B30728F028E130E02B
:1005800040E050E004C020E130E040E050E060E2B4
:10059000462E512C612C712C421A530A640A750A9A
:1005A00004C0B695A795979587952A95D2F7FC0133
:1005B000E658FF4F8081481A5108610871084114BC
:1005C00051046104710429F460E070E080E09FED63
:1005D00072C081E290E0A0E0B0E084199509A6091C
:1005E000B70989839A83AB83BC8319819401A501E0
:1005F000B601C701012F0E94F107C901DA012C01E0
:100600003D0180E290E0A981BA818A1B9B0BA50184
:10061000940104C0220F331F441F551F8A95D2F73F
:10062000211531054105510541F081E090E0A0E040
:10063000B0E0482A592A6A2A7B2A29813A814B81CB
:100640005C81203231054105510559F40F2EF0E04F
:10065000CF2EF0E0DF2EF0E8EF2EFFE4FF2EF02D9E
:1006600022C089819A81AB81BC814F97A105B105D8
:1006700059F40F2EF0E0CF2EF0E0DF2EF0E0EF2E59
:10068000FFE4FF2EF02D0FC061E070E080E090E00D
:1006900004C0660F771F881F991F1A95D2F70E9412
:1006A0003F076B017C01C301B2010E943F07A70114
:1006B00096010E9409052496E0E10C945327A0E0DE
:1006C000B0E0E5E6F3E00C943527DC012B01FA01FC
:1006D0009C91923008F439C1EB018881823008F492
:1006E00033C1943069F4843009F02FC111969C9184
:1006F00011978981981709F428C1A2E7B0E025C1B4
:10070000843009F421C18230A9F4923009F01DC16E
:100710009A01AD0188E0EA010990AE01E901099270
:100720009E018150C1F7E201898111969C91892334
:10073000818308C1923009F407C112962D903C9034
:100740001397EB018A819B811496AD90BD90CD905B
:10075000DC901797EC80FD800E811F819101281B92
:10076000390BB90137FF04C066277727621B730B6B
:10077000603271050CF061C0121613066CF537017A
:100780004801062E04C096948794779467940A943F
:10079000D2F721E030E040E050E004C0220F331FE8
:1007A000441F551F6A95D2F72150304040405040B9
:1007B0002E213F21402351232115310541055105AB
:1007C00021F021E030E040E050E079018A01E628A4
:1007D000F728082919293CC0232BD1F1260E371EF2
:1007E00035014601062E04C0969487947794679449
:1007F0000A94D2F721E030E040E050E004C0220F3C
:10080000331F441F551F6A95D2F721503040404096
:1008100050402A213B214C215D2121153105410504
:10082000510521F021E030E040E050E059016A013B
:10083000A628B728C828D9280BC0821593052CF004
:100840001C01AA24BB24650103C0EE24FF248701F8
:1008500011969C91D20111968C91981709F445C07C
:10086000992339F0A80197012A193B094C095D0920
:1008700006C0A60195012E193F09400B510B57FDEB
:1008800008C01182338222822483358346835783B2
:100890001DC081E081833382228288279927DC0171
:1008A000821B930BA40BB50B84839583A683B7831C
:1008B0000DC0220F331F441F551F248335834683E9
:1008C0005783828193810197938382832481358129
:1008D00046815781DA01C9010197A109B1098F5FEA
:1008E0009F4FAF4FBF4328F30BC0918333822282C7
:1008F000EA0CFB1C0C1D1D1DE482F5820683178388
:1009000083E08083248135814681578157FF1AC057
:10091000C901AA2797FDA095BA2F81709070A07089
:10092000B0705695479537952795822B932BA42B1E
:10093000B52B84839583A683B783828193810196A7
:1009400093838283DF0101C0D201CD01CDB7DEB731
:10095000E2E10C945127A0E2B0E0E1EBF4E00C946A
:10096000412769837A838B839C832D833E834F83C6
:100970005887E9E0EE2EF12CEC0EFD1ECE0101961B
:10098000B7010E949A098E010F5E1F4FCE01059696
:10099000B8010E949A098A8991E089278A8BC70148
:1009A000B801AE01475E5F4F0E945F030E94C50819
:1009B000A096E6E00C945D27A0E2B0E0E2EEF4E061
:1009C0000C94412769837A838B839C832D833E8398
:1009D0004F835887F9E0EF2EF12CEC0EFD1ECE016F
:1009E0000196B7010E949A098E010F5E1F4FCE013A
:1009F0000596B8010E949A09C701B801AE01475E89
:100A00005F4F0E945F030E94C508A096E6E00C9429
:100A10005D27A0E2B0E0EFE0F5E00C9435276983B4
:100A20007A838B839C832D833E834F835887CE01AB
:100A30000196BE01675F7F4F0E949A09CE0105961D
:100A4000BE016F5E7F4F0E949A099985923088F0AF
:100A500089898230C8F0943019F4823051F404C08E
:100A6000843029F4923081F482E790E0C6C092305D
:100A700049F420E09A858A89981321E02A87CE01DB
:100A80000996BBC0823049F420E09A858A89981380
:100A900021E02A8BCE014196B0C02D843E844F8444
:100AA00058886D887E888F88988CEE24FF24870173
:100AB000AA24BB24650140E050E060E070E0E0E083
:100AC000F0E0C10181709070892BE9F0E60CF71C11
:100AD000081D191D9A01AB012A0D3B1D4C1D5D1D02
:100AE00080E090E0A0E0B0E0E614F7040805190506
:100AF00020F481E090E0A0E0B0E0BA01A901480F45
:100B0000591F6A1F7B1FAA0CBB1CCC1CDD1C97FE47
:100B100008C081E090E0A0E0B0E0A82AB92ACA2A83
:100B2000DB2A3196E032F10549F0660C771C881C0F
:100B3000991C5694479437942794C3CFFA85EA8931
:100B40002B893C898B859C85280F391F2E5F3F4F51
:100B500017C0CA0181709070892B61F016950795B6
:100B6000F794E79480E090E0A0E0B0E8E82AF92A62
:100B70000A2B1B2B76956795579547952F5F3F4F0F
:100B800077FDE7CF0CC0440F551F661F771F17FD79
:100B90004160EE0CFF1C001F111F215030404030FF
:100BA00090E0590790E0690790E4790760F32B8F94
:100BB0003C8FDB01CA018F779070A070B0708034D9
:100BC0009105A105B10561F447FD0AC0E114F104E6
:100BD0000105110529F0405C5F4F6F4F7F4F407852
:100BE0001A8EFE1711F081E08A8F4D8F5E8F6F8F06
:100BF00078A383E0898FCE0149960E94C508A0960C
:100C0000E2E10C945127A8E1B0E0E9E0F6E00C94B1
:100C10003D2769837A838B839C832D833E834F8317
:100C20005887B9E0EB2EF12CEC0EFD1ECE0101969B
:100C3000B7010E949A098E010F5E1F4FCE010596E3
:100C4000B8010E949A092985223008F47EC03989AA
:100C5000323010F4B8017CC08A859A8989278A8746
:100C6000243011F0223031F4231709F06EC062E70E
:100C700070E06EC0343039F41D861E861F86188AD7
:100C80001C861B8604C0323021F484E08987B701BA
:100C90005FC02B853C858B899C89281B390B3C8741
:100CA0002B87ED84FE840F851889AD88BE88CF8898
:100CB000D88CEA14FB040C051D0540F4EE0CFF1C57
:100CC000001F111F215030403C872B8720E030E06F
:100CD00040E050E080E090E0A0E0B0E460E070E050
:100CE000EA14FB040C051D0540F0282B392B4A2B78
:100CF0005B2BEA18FB080C091D09B695A79597957B
:100D00008795EE0CFF1C001F111F6F5F7F4F6F3127
:100D1000710531F7DA01C9018F779070A070B0705A
:100D200080349105A105B10561F427FD0AC0E114E5
:100D3000F1040105110529F0205C3F4F4F4F5F4F33
:100D400020782D873E874F87588BBE01675F7F4F86
:100D5000CB010E94C5086896EAE00C945927A8E1E7
:100D6000B0E0E5EBF6E00C94412769837A838B834E
:100D70009C832D833E834F83588789E0E82EF12C96
:100D8000EC0EFD1ECE010196B7010E949A098E015C
:100D90000F5E1F4FCE010596B8010E949A09898502
:100DA000823040F08989823028F0C701B8010E9462
:100DB000120A01C08FEF6896E6E00C945D27A8E167
:100DC000B0E0E5EEF6E00C94412769837A838B83EB
:100DD0009C832D833E834F83588789E0E82EF12C36
:100DE000EC0EFD1ECE010196B7010E949A098E01FC
:100DF0000F5E1F4FCE010596B8010E949A098985A2
:100E0000823040F08989823028F0C701B8010E9401
:100E1000120A01C08FEF6896E6E00C945D27A8E106
:100E2000B0E0E5E1F7E00C94412769837A838B8396
:100E30009C832D833E834F83588789E0E82EF12CD5
:100E4000EC0EFD1ECE010196B7010E949A098E019B
:100E50000F5E1F4FCE010596B8010E949A09898541
:100E6000823040F08989823028F0C701B8010E94A1
:100E7000120A01C081E06896E6E00C945D27A8E0C4
:100E8000B0E0E5E4F7E00C943E279B01AC0183E081
:100E90008983DA01C9018827B7FD83959927AA2795
:100EA000BB27B82E211531054105510519F482E003
:100EB00089833AC08823A9F0203080E0380780E099
:100EC000480780E8580729F460E070E080E09FEC74
:100ED00030C0EE24FF248701E21AF30A040B150B3D
:100EE00002C079018A018EE1C82ED12CDC82CB822E
:100EF000ED82FE820F831887C801B7010E94760831
:100F000001971816190684F4082E04C0EE0CFF1C75
:100F1000001F111F0A94D2F7ED82FE820F831887FB
:100F2000C81AD90ADC82CB82BA82CE0101960E940D
:100F3000C5082896E9E00C945A27ACE0B0E0E3EA53
:100F4000F7E00C94452769837A838B839C83CE01D9
:100F50000196BE016B5F7F4F0E949A098D8182309E
:100F600061F1823050F1843021F48E81882351F177
:100F70002EC02F81388537FD20C06E812F3131057D
:100F80001CF06623F9F023C08EE190E0821B930BE6
:100F900029853A854B855C8504C0569547953795DC
:100FA00027958A95D2F76623B1F0509540953095F4
:100FB00021953F4F4F4F5F4F0EC020E030E040E0A3
:100FC00050E009C02FEF3FEF4FEF5FE704C020E094
:100FD00030E040E050E8B901CA012C96E2E00C9400
:100FE0006127EF92FF920F93DF93CF93CDB7DEB7D8
:100FF00060970FB6F894DEBF0FBECDBFA82F0023B9
:1010000009F467C07E010894E11CF11C88E0F70137
:1010100011928A95E9F729833A834B835C836D8328
:101020007E83AF83988780E2801B4D815E816F81D4
:101030007885E82FFF27E7FDF0951816B4F0DB015F
:10104000CA01BB0F880B982FDC018D879E87AF8765
:10105000B88B882799278E1B9F0B04C075956795C1
:10106000579547958A95D2F728C0202F332727FD1B
:101070003095DB01CA01022E04C0B595A79597955E
:1010800087950A94D2F78D879E87AF87B88B04C067
:10109000440F551F661F771FEA95D2F789819A8101
:1010A000AB81BC8104C0B695A795979587952A9585
:1010B000D2F7482B592B6A2B7B2B49875A876B8792
:1010C0007C8729853A854B855C856D857E85AF85D6
:1010D00098898A2F60960FB6F894DEBF0FBECDBFF9
:1010E000CF91DF910F91FF90EF900895EF92FF92D3
:1010F0000F931F937B018C0180E0E81680E0F806D7
:1011000081E0080780E0180788F48FEFE816F10403
:101110000105110531F028F088E090E0A0E0B0E092
:1011200017C080E090E0A0E0B0E012C080E0E816D8
:1011300080E0F80680E0080781E0180728F088E1E1
:1011400090E0A0E0B0E004C080E190E0A0E0B0E07A
:1011500020E230E040E050E0281B390B4A0B5B0BEB
:1011600004C016950795F794E7948A95D2F7F7018E
:10117000E658FF4F8081281B310941095109C901F7
:101180001F910F91FF90EF900895DF92EF92FF92E1
:101190000F931F93FC01E480F58006811781D180B5
:1011A0008081823048F480E090E0A0E1B0E0E82A5D
:1011B000F92A0A2B1B2BA5C0843009F49FC082306A
:1011C00021F4EE24FF24870105C0E114F104010598
:1011D000110519F4E0E0F0E096C0628173819FEFA1
:1011E000623879070CF05BC022E83FEF261B370B13
:1011F0002A3131052CF020E030E040E050E02AC0F8
:10120000B801A701022E04C07695679557954795BA
:101210000A94D2F781E090E0A0E0B0E004C0880F2B
:10122000991FAA1FBB1F2A95D2F70197A109B109DF
:101230008E219F21A023B1230097A105B10521F0A4
:1012400081E090E0A0E0B0E09A01AB01282B392BBF
:101250004A2B5B2BDA01C9018F779070A070B070B8
:1012600080349105A105B10539F427FF09C0205C40
:101270003F4F4F4F5F4F04C0215C3F4F4F4F5F4F79
:10128000E0E0F0E02030A0E03A07A0E04A07A0E468
:101290005A0710F0E1E0F0E079018A0127C06038D8
:1012A000710564F5FB01E158FF4FD801C7018F7745
:1012B0009070A070B07080349105A105B10539F42B
:1012C000E7FE0DC080E490E0A0E0B0E004C08FE352
:1012D00090E0A0E0B0E0E80EF91E0A1F1B1F17FF08
:1012E00005C016950795F794E794319687E0169513
:1012F0000795F794E7948A95D1F705C0EE24FF246B
:101300008701EFEFF0E06E2F679566276795902FC6
:101310009F77D794DD24D7948E2F8695492F462B1F
:10132000582F5D29B701CA011F910F91FF90EF90CF
:10133000DF900895FC01DB01408151812281622F01
:101340006F7770E0221F2227221F9381892F880F39
:10135000822B282F30E0991F9927991F11969C9373
:10136000119721153105A9F5411551056105710543
:1013700011F482E037C082E89FEF13969C938E931E
:1013800012979A01AB0167E0220F331F441F551FCC
:101390006A95D1F783E08C930DC0220F331F441F51
:1013A000551F12968D919C911397019713969C93BC
:1013B0008E931297203080E0380780E0480780E461
:1013C000580758F314962D933D934D935C931797BC
:1013D00008952F3F310579F44115510561057105D7
:1013E00019F484E08C93089564FF03C081E08C932A
:1013F00012C01C9210C02F57304013963C932E936E
:10140000129783E08C9387E0440F551F661F771F68
:101410008A95D1F7706414964D935D936D937C9388
:10142000179708951F93DC01FB019C91923008F4FB
:1014300047C08081823008F443C0943051F4119643
:101440001C91843099F58181682F70E0611B7109CE
:101450003FC0843021F0923031F48230B9F1818183
:10146000882389F12DC011961C9111978230F1F0DB
:1014700081811817D9F412962D913C91139782818E
:1014800093818217930794F028173907BCF01496BC
:101490008D919D910D90BC91A02D24813581468127
:1014A0005781281739074A075B0718F4112341F0C1
:1014B0000AC082179307A407B50740F4112319F057
:1014C00061E070E005C06FEF7FEF02C060E070E0A8
:1014D000CB011F9108952F923F924F925F926F928E
:1014E0007F928F929F92AF92BF92CF92DF92EF92B4
:1014F000FF920F931F93DF93CF93CDB7DEB7C25EFA
:10150000D0400FB6F894DEBF0FBECDBF0E948F1C37
:10151000CE018C589F4FC856DF4F99838883C85996
:10152000D0400AE711E0C656DF4F19830883CA5935
:10153000D04010E1C456DF4F1883CC59D040C65676
:10154000DF4FE881F981CA59D0400080C656DF4F8D
:1015500008811981CA59D0400F5F1F4FC656DF4F0F
:1015600019830883CA59D040C856DF4FE881F981F2
:10157000C859D0400082C856DF4F08811981C85928
:10158000D0400F5F1F4FC856DF4F19830883C859DB
:10159000D040C456DF4F1881CC59D0401150C456AA
:1015A000DF4F1883CC59D040C456DF4F2881CC5927
:1015B000D040222321F6FE01ED58FF4F108220E695
:1015C00030E080E062E0A9010E94A22627E630E038
:1015D00081E065E0A9010E94A226FE01E359FF4FC8
:1015E00080E090E0AAEFB3E480839183A283B38389
:1015F0008E0107591F4FFE01E359FF4F6081718132
:101600008281938120E030E04AE755E40E94090599
:10161000DC01CB01F80180839183A283B383FE01B7
:10162000E759FF4F608171818281938120E030E032
:1016300040E85FE30E940F07882344F4FE01E95964
:10164000FF4F81E090E09183808364C0FE01E75901
:10165000FF4F608171818281938120E03FEF4FE7EE
:1016600057E40E94AF0618160CF043C0FE01E35980
:10167000FF4F608171818281938120E030E040E200
:1016800051E40E940905DC01CB018E0109591F4F6D
:10169000BC01CD010E943802DC01CB01F80191832D
:1016A00080831FC0FE01EB59FF4F80E991E09183D9
:1016B0008083FE01EB59FF4F808191810197F1F703
:1016C000FE01EB59FF4F91838083DE01A959BF4F83
:1016D000FE01E959FF4F80819181019711969C93FA
:1016E0008E93FE01E959FF4F808191810097D1F6D9
:1016F00027C08E0109591F4FFE01E759FF4F608136
:101700007181828193810E943802DC01CB01F80152
:1017100091838083DE01AD59BF4FFE01E959FF4F30
:10172000808191818D939C93FE01ED59FF4F8081C3
:1017300091810197F1F7FE01ED59FF4F918380836D
:101740000E940C270E94FB1AFE01EF58FF4F808376
:10175000FE01EF58FF4F80818334E1F40E940C2793
:10176000FE01ED58FF4F1082FE01EC58FF4F108232
:101770001182128213821482158216821782FE0150
:10178000EC58FF4F10861186128613861486158634
:1017900016861786FE01EF58FF4F80818A3008F0C9
:1017A000A3C7FE01EF58FF4F8081882F90E00E9471
:1017B000BB26FE01E15AFF4F80E090E0A6E9B3E4CA
:1017C00080839183A283B3838E01055A1F4FFE014C
:1017D000E15AFF4F608171818281938120E030E086
:1017E0004AE755E40E940905DC01CB01F80180833A
:1017F0009183A283B383FE01E55AFF4F608171811B
:101800008281938120E030E040E85FE30E940F078F
:10181000882344F4FE01E75AFF4F81E090E0918372
:10182000808364C0FE01E55AFF4F6081718182812F
:10183000938120E03FEF4FE757E40E94AF06181670
:101840000CF043C0FE01E15AFF4F6081718182813B
:10185000938120E030E040E251E40E940905DC0180
:10186000CB018E01075A1F4FBC01CD010E943802E7
:10187000DC01CB01F801918380831FC0FE01E95A8E
:10188000FF4F80E991E091838083FE01E95AFF4F89
:10189000808191810197F1F7FE01E95AFF4F918311
:1018A0008083DE01A75ABF4FFE01E75AFF4F8081B8
:1018B0009181019711969C938E93FE01E75AFF4FF9
:1018C000808191810097D1F627C08E01075A1F4F62
:1018D000FE01E55AFF4F60817181828193810E94F0
:1018E0003802DC01CB01F80191838083DE01AB5A21
:1018F000BF4FFE01E75AFF4F808191818D939C93EA
:10190000FE01EB5AFF4F808191810197F1F7FE01B3
:10191000EB5AFF4F91838083FE01ED58FF4F80818A
:10192000082F10E0CA56DF4F19830883C659D040EC
:10193000FE01ED58FF4F8081882F90E09E012C58CA
:101940003F4F880F991F880F991F880F991FF90122
:10195000E80FF91F208131814281538164817581B3
:1019600086819781A22EB32EC42ED52EE62EF72E79
:10197000082F192F2A2D3B2D4C2D5D2D6E2D7F2DDF
:10198000802F912F01E00E94B901C356DF4F2883B9
:10199000CD59D040C256DF4F3883CE59D040C156C2
:1019A000DF4F4883CF59D040C056DF4F5883C05ACD
:1019B000D040CF55DF4F6883C15AD040CE55DF4F5E
:1019C0007883C25AD040CD55DF4F8883C35AD04068
:1019D000CC55DF4F9883C45AD040C356DF4F28817F
:1019E000CD59D040C256DF4F3881CE59D040C15674
:1019F000DF4F4881CF59D040C056DF4F5881C05A81
:101A0000D040CF55DF4F6881C15AD040CE55DF4F0F
:101A10007881C25AD040CD55DF4F8881C35AD0401B
:101A2000CC55DF4F9881C45AD04002E00E94B901E2
:101A3000CB55DF4F2883C55AD040CA55DF4F388376
:101A4000C65AD040C955DF4F4883C75AD040C85501
:101A5000DF4F5883C85AD040C755DF4F6883C95AF3
:101A6000D040C655DF4F7883CA5AD040C555DF4FA6
:101A70008883CB5AD040C455DF4F9883CC5AD0408E
:101A8000C356DF4F1881CD59D040CB55DF4F288149
:101A9000C55AD040120FC355DF4F1883CD5AD040DE
:101AA00031E0CB54DF4F3883C55BD040C355DF4FA7
:101AB0004881CD5AD040C356DF4F5881CD59D040D0
:101AC000451728F0CB54DF4F1882C55BD040C25673
:101AD000DF4F6881CE59D040CA55DF4F7881C65A52
:101AE000D040670FC255DF4F6883CE5AD04081E0A7
:101AF000CA54DF4F8883C65BD040C255DF4F988100
:101B0000CE5AD040C256DF4FE881CE59D0409E1702
:101B100028F0CA54DF4F1882C65BD040CB54DF4F49
:101B2000F881C55BD040C255DF4F0881CE5AD04006
:101B3000F00FC954DF4FF883C75BD04011E0C854A1
:101B4000DF4F1883C85BD040C954DF4F2881C75B83
:101B5000D040C255DF4F3881CE5AD040231728F0ED
:101B6000C854DF4F1882C85BD040CA54DF4F488149
:101B7000C65BD040C854DF4F5881C85BD040452B6E
:101B8000CA54DF4F4883C65BD040C954DF4F6881D9
:101B9000C75BD040C255DF4F6883CE5AD040C15694
:101BA000DF4F7881CF59D040C955DF4F8881C75A60
:101BB000D040780FC155DF4F7883CF5AD04091E0A5
:101BC000C754DF4F9883C95BD040C155DF4FE881D0
:101BD000CF5AD040C156DF4FF881CF59D040EF17D0
:101BE00028F0C754DF4F1882C95BD040CA54DF4F7A
:101BF0000881C65BD040C155DF4F1881CF5AD04015
:101C0000010FC654DF4F0883CA5BD04021E0C554A2
:101C1000DF4F2883CB5BD040C654DF4F3881CA5B8F
:101C2000D040C155DF4F4881CF5AD040341728F0FB
:101C3000C554DF4F1882CB5BD040C754DF4F58816B
:101C4000C95BD040C554DF4F6881CB5BD040562B79
:101C5000C754DF4F5883C95BD040C654DF4F7881EB
:101C6000CA5BD040C155DF4F7883CF5AD040C056B1
:101C7000DF4F8881C05AD040C855DF4F9881C85A7D
:101C8000D040890FC055DF4F8883C05BD040E1E072
:101C9000C454DF4FE883CC5BD040C055DF4FF881A0
:101CA000C05BD040C056DF4F0881C05AD040F0170B
:101CB00028F0C454DF4F1882CC5BD040C754DF4FAC
:101CC0001881C95BD040C055DF4F2881C05BD04030
:101CD000120FC354DF4F1883CD5BD04031E0C254A4
:101CE000DF4F3883CE5BD040C354DF4F4881CD5B9C
:101CF000D040C055DF4F5881C05BD040451728F019
:101D0000C254DF4F1882CE5BD040C454DF4F68818D
:101D1000CC5BD040C254DF4F7881CE5BD040672B84
:101D2000C454DF4F6883CC5BD040C354DF4F8881FD
:101D3000CD5BD040C055DF4F8883C05BD040CF55CE
:101D4000DF4F9881C15AD040C755DF4FE881C95A4B
:101D5000D0409E0FCF54DF4F9883C15BD040F1E05D
:101D6000C154DF4FF883CF5BD040CF54DF4F0881A1
:101D7000C15BD040CF55DF4F1881C15AD040011709
:101D800028F0C154DF4F1882CF5BD040C454DF4FDE
:101D90002881CC5BD040CF54DF4F3881C15BD0402D
:101DA000230FC054DF4F2883C05CD04041E0CF53A5
:101DB000DF4F4883C15CD040C054DF4F5881C05CC6
:101DC000D040CF54DF4F6881C15BD040561728F018
:101DD000CF53DF4F1882C15CD040C154DF4F7881B0
:101DE000CF5BD040CF53DF4F8881C15CD040782B90
:101DF000C154DF4F7883CF5BD040C054DF4F988110
:101E0000C05CD040CF54DF4F9883C15BD040CE55EB
:101E1000DF4FE881C25AD040C655DF4FF881CA5A19
:101E2000D040EF0FCE54DF4FE883C25BD04001E0DB
:101E3000CE53DF4F0883C25CD040CE54DF4F1881B1
:101E4000C25BD040CE55DF4F2881C25AD040121716
:101E500028F0CE53DF4F1882C25CD040C154DF4F10
:101E60003881CF5BD040CE54DF4F4881C25BD04039
:101E7000340FCD53DF4F3883C35CD04051E0CC5397
:101E8000DF4F5883C45CD040CD53DF4F6881C35CC3
:101E9000D040CE54DF4F7881C25BD040671728F026
:101EA000CC53DF4F1882C45CD040CE53DF4F8881C3
:101EB000C25CD040CC53DF4F9881C45CD040892BAA
:101EC000CE53DF4F8883C25CD040CD53DF4FE881D3
:101ED000C35CD040CE54DF4FE883C25BD040CD55C9
:101EE000DF4FF881C35AD040C555DF4F0881CB5A28
:101EF000D040F00FCD54DF4FF883C35BD04011E0EA
:101F0000CB53DF4F1883C55CD040CD54DF4F2881C1
:101F1000C35BD040CD55DF4F3881C35AD040231723
:101F200028F0CB53DF4F1882C55CD040CE53DF4F33
:101F30004881C25CD040CD54DF4F5881C35BD04054
:101F4000450FCA53DF4F4883C65CD04061E0C95398
:101F5000DF4F6883C75CD040CA53DF4F7881C65CCF
:101F6000D040CD54DF4F8881C35BD040781728F034
:101F7000C953DF4F1882C75CD040CB53DF4F9881E5
:101F8000C55CD040C953DF4FE881C75CD0409E2B71
:101F9000CB53DF4F9883C55CD040CA53DF4FF881E5
:101FA000C65CD040CD54DF4FF883C35BD040CC55E6
:101FB000DF4F0881C45AD040C455DF4F1881CC5A36
:101FC000D040010FCC54DF4F0883C45BD040CB53CB
:101FD000DF4F8881C55CD040CC54DF4F2881C45B83
:101FE000D040820FCC54DF4F8883C45BD040C355B0
:101FF000DF4F3881CD5AD040C257DF4F3883CE589B
:10200000D040C255DF4F4881CE5AD040C157DF4F34
:102010004883CF58D040C155DF4F5881CF5AD04068
:10202000C057DF4F5883C059D040C055DF4F68813B
:10203000C05BD040CF56DF4F6883C159D040CF54EA
:10204000DF4F7881C15BD040CE56DF4F7883C259D5
:10205000D040CE54DF4F8881C25BD040CD56DF4F99
:102060008883C359D040CD54DF4F9881C35BD040A3
:10207000CC56DF4F9883C459D040CC54DF4FE88111
:10208000C45BD040CB56DF4FE883C559D040FE013A
:10209000EF58FF4F8081082F10E020E030E040E053
:1020A00050E060E070E0CA57DF4F0883C658D04068
:1020B000C957DF4F1883C758D040C857DF4F288310
:1020C000C858D040C757DF4F3883C958D040C6578B
:1020D000DF4F4883CA58D040C557DF4F5883CB588D
:1020E000D040C457DF4F6883CC58D040C357DF4F30
:1020F0007883CD58D040C257DF4F1881CE58D0409A
:10210000CA57DF4F2881C658D040120FC853DF4F3F
:102110001883C85CD04031E0C053DF4F3883C05DC6
:10212000D040C853DF4F4881C85CD040C257DF4F12
:102130005881CE58D040451728F0C053DF4F188241
:10214000C05DD040C157DF4F6881CF58D040C957DC
:10215000DF4F7881C758D040670FC753DF4F688380
:10216000C95CD04081E0CF52DF4F8883C15DD04051
:10217000C753DF4F9881C95CD040C157DF4FE8811A
:10218000CF58D0409E1728F0CF52DF4F1882C15D44
:10219000D040C053DF4FF881C05DD040C753DF4F00
:1021A0000881C95CD040F00FCE52DF4FF883C25D8A
:1021B000D04011E0CD52DF4F1883C35DD040CE52E6
:1021C000DF4F2881C25DD040C753DF4F3881C95CE3
:1021D000D040231728F0CD52DF4F1882C35DD04086
:1021E000CF52DF4F4881C15DD040CD52DF4F588183
:1021F000C35DD040452BCF52DF4F4883C15DD040F7
:10220000CE52DF4F6881C25DD040C753DF4F688335
:10221000C95CD040C057DF4F7881C059D040C85703
:10222000DF4F8881C858D040780FC653DF4F78837E
:10223000CA5CD04091E0CC52DF4F9883C45DD0405F
:10224000C653DF4FE881CA5CD040C057DF4FF881EA
:10225000C059D040EF1728F0CC52DF4F1882C45D30
:10226000D040CF52DF4F0881C15DD040C653DF4F11
:102270001881CA5CD040010FCB52DF4F0883C55D87
:10228000D04021E0CA52DF4F2883C65DD040CB52F8
:10229000DF4F3881C55DD040C653DF4F4881CA5CEF
:1022A000D040341728F0CA52DF4F1882C65DD040A4
:1022B000CC52DF4F5881C45DD040CA52DF4F688195
:1022C000C65DD040562BCC52DF4F5883C45DD04002
:1022D000CB52DF4F7881C55DD040C653DF4F788346
:1022E000CA5CD040CF56DF4F8881C159D040C75714
:1022F000DF4F9881C958D040890FC553DF4F88837D
:10230000CB5CD040E1E0C952DF4FE883C75DD040ED
:10231000C553DF4FF881CB5CD040CF56DF4F0881EB
:10232000C159D040F01728F0C952DF4F1882C75D5D
:10233000D040CC52DF4F1881C45DD040C553DF4F31
:102340002881CB5CD040120FC852DF4F1883C85D84
:10235000D04031E0C752DF4F3883C95DD040C8520A
:10236000DF4F4881C85DD040C553DF4F5881CB5CFB
:10237000D040451728F0C752DF4F1882C95DD040C2
:10238000C952DF4F6881C75DD040C752DF4F7881A7
:10239000C95DD040672BC952DF4F6883C75DD0400D
:1023A000C852DF4F8881C85DD040C553DF4F888356
:1023B000CB5CD040CE56DF4F9881C259D040C65733
:1023C000DF4FE881CA58D0409E0FC453DF4F988337
:1023D000CC5CD040F1E0C652DF4FF883CA5DD040FC
:1023E000C453DF4F0881CC5CD040CE56DF4F1881FC
:1023F000C259D040011728F0C652DF4F1882CA5D7B
:10240000D040C952DF4F2881C75DD040C453DF4F51
:102410003881CC5CD040230FC552DF4F2883CB5D81
:10242000D04041E0C452DF4F4883CC5DD040C5521C
:10243000DF4F5881CB5DD040C453DF4F6881CC5C07
:10244000D040561728F0C452DF4F1882CC5DD040E0
:10245000C652DF4F7881CA5DD040C452DF4F8881B9
:10246000CC5DD040782BC652DF4F7883CA5DD04018
:10247000C552DF4F9881CB5DD040C453DF4F988366
:10248000CC5CD040CD56DF4FE881C359D040C55712
:10249000DF4FF881CB58D040EF0FC353DF4FE883B5
:1024A000CD5CD04001E0C352DF4F0883CD5DD0400A
:1024B000C353DF4F1881CD5CD040CD56DF4F28810C
:1024C000C359D040121728F0C352DF4F1882CD5D98
:1024D000D040C652DF4F3881CA5DD040C353DF4F72
:1024E0004881CD5CD040340FC252DF4F3883CE5D7F
:1024F000D04051E0C152DF4F5883CF5DD040C2522F
:10250000DF4F6881CE5DD040C353DF4F7881CD5C13
:10251000D040671728F0C152DF4F1882CF5DD040FE
:10252000C352DF4F8881CD5DD040C152DF4F9881CB
:10253000CF5DD040892BC352DF4F8883CD5DD04023
:10254000C252DF4FE881CE5DD040C353DF4FE883F6
:10255000CD5CD040CC56DF4FF881C459D040C45731
:10256000DF4F0881CC58D040F00FC253DF4FF883C3
:10257000CE5CD04011E0C052DF4F1883C05ED04027
:10258000C253DF4F2881CE5CD040CC56DF4F38811C
:10259000C459D040231728F0C052DF4F1882C05EC4
:1025A000D040C352DF4F4881CD5DD040C253DF4F92
:1025B0005881CE5CD040450FCF51DF4F4883C15E7C
:1025C000D04061E0CE51DF4F6883C25ED040CF5132
:1025D000DF4F7881C15ED040C253DF4F8881CE5C2F
:1025E000D040781728F0CE51DF4F1882C25ED0401D
:1025F000C052DF4F9881C05ED040CE51DF4FE8819E
:10260000C25ED0409E2BC052DF4F9883C05ED04048
:10261000CF51DF4FF881C15ED040C253DF4FF88306
:10262000CE5CD040CB56DF4F0881C559D040C35750
:10263000DF4F1881CD58D040010FC153DF4F0883C1
:10264000CF5CD040C052DF4F8881C05ED040C153C4
:10265000DF4F2881CF5CD040820FC153DF4F88838A
:10266000CF5CD040C853DF4F2881C85CD040C753EF
:10267000DF4F3881C95CD040C653DF4F4881CA5C08
:10268000D040C553DF4F5881CB5CD040C453DF4F9F
:102690006881CC5CD040C353DF4F7881CD5CD040A3
:1026A000C253DF4F8881CE5CD040C153DF4F988149
:1026B000CF5CD040DE01AC58BF4FCA56DF4FE88137
:1026C000F981C659D040EE0FFF1FEE0FFF1FEE0F2E
:1026D000FF1FEA0FFB1F20833183428353836483F0
:1026E0007583868397836FC1FE01EF58FF4F80810A
:1026F0008D3309F4D2C0FE01EF58FF4F808183343F
:1027000009F4CBC0FE01EF58FF4F80810E94BC212D
:10271000FE01EF5AFF4F80E090E0A6E9B3E480832A
:102720009183A283B3838E01035B1F4FFE01EF5A97
:10273000FF4F608171818281938120E030E04AE720
:1027400055E40E940905DC01CB01F80180839183E7
:10275000A283B383FE01E35BFF4F608171818281BD
:10276000938120E030E040E85FE30E940F07882378
:1027700044F4FE01E55BFF4F81E090E091838083AC
:1027800064C0FE01E35BFF4F6081718182819381B0
:1027900020E03FEF4FE757E40E94AF0618160CF019
:1027A00043C0FE01EF5AFF4F6081718182819381A6
:1027B00020E030E040E251E40E940905DC01CB0159
:1027C0008E01055B1F4FBC01CD010E943802DC0168
:1027D000CB01F801918380831FC0FE01E75BFF4FAF
:1027E00080E991E091838083FE01E75BFF4F808168
:1027F00091810197F1F7FE01E75BFF4F91838083A1
:10280000DE01A55BBF4FFE01E55BFF4F808191813B
:10281000019711969C938E93FE01E55BFF4F80819B
:1028200091810097D1F627C08E01055B1F4FFE01F5
:10283000E35BFF4F60817181828193810E94380246
:10284000DC01CB01F80191838083DE01A95BBF4FDE
:10285000FE01E55BFF4F808191818D939C93FE018A
:10286000E95BFF4F808191810197F1F7FE01E95B00
:10287000FF4F91838083DE01AE58BF4FFE01EF58BA
:10288000FF4F80818C93DE01AD58BF4FFE01ED58A4
:10289000FF4F80818F5F8C9396C0FE01EF58FF4FF2
:1028A00080818D3309F08FC0FE01EF58FF4F80818A
:1028B0000E94BC21FE01ED5BFF4F80E090E0A6E9A5
:1028C000B3E480839183A283B3838E01015C1F4FA5
:1028D000FE01ED5BFF4F608171818281938120E079
:1028E00030E04AE755E40E940905DC01CB01F8011C
:1028F00080839183A283B383FE01FF9660817181FF
:102900008281938120E030E040E85FE30E940F077E
:1029100088232CF481E090E09EAF8DAF46C0FE018D
:10292000FF96608171818281938120E03FEF4FE7C4
:1029300057E40E94AF06181664F5FE01ED5BFF4FE9
:10294000608171818281938120E030E040E251E436
:102950000E940905DC01CB01BC01CD010E943802B7
:10296000DC01CB019EAF8DAF0FC080E991E09CAF41
:102970008BAF8BAD9CAD0197F1F79CAF8BAF8DAD5D
:102980009EAD01979EAF8DAF8DAD9EAD009769F75F
:1029900016C0FE01FF9660817181828193810E9441
:1029A0003802DC01CB019EAF8DAF8DAD9EAD9AAFED
:1029B00089AF89AD9AAD0197F1F79AAF89AFFE0162
:1029C000ED58FF4F1082FE01EF58FF4F80818D338D
:1029D00011F00C94A20B81E060E00E946026FE01E1
:1029E000EE58FF4F8081082F10E0CC57DF4F19833E
:1029F0000883C458D040CC57DF4F28813981C45850
:102A0000D0402A32310509F44EC1CC57DF4F4881FE
:102A10005981C458D0404B32510564F4CC57DF4F34
:102A200068817981C458D0406532710509F4F8C1D4
:102A30000C94A20BCC57DF4F88819981C458D040A9
:102A40008B32910561F0CC57DF4FE881F981C45892
:102A5000D040ED32F10509F493C00C94A20BFE01B5
:102A6000EC58FF4F2081318142815381648175810F
:102A700086819781D901FE01EC58FF4F2085318571
:102A8000428553856485758586859785C9018A0F3A
:102A90009B1F0E94BB2680E090E0A6E9B3E48DABCB
:102AA0009EABAFABB8AF6DA97EA98FA998AD20E062
:102AB00030E04AE755E40E940905DC01CB0189AB0F
:102AC0009AABABABBCAB69A97AA98BA99CA920E056
:102AD00030E040E85FE30E940F0788232CF481E098
:102AE00090E098AB8FA740C069A97AA98BA99CA94F
:102AF00020E03FEF4FE757E40E94AF06181654F569
:102B00006DA97EA98FA998AD20E030E040E251E4A4
:102B10000E940905DC01CB01BC01CD010E943802F5
:102B2000DC01CB0198AB8FA70FC080E991E09EA795
:102B30008DA78DA59EA50197F1F79EA78DA78FA5BF
:102B400098A9019798AB8FA78FA598A9009769F7C7
:102B50000C94A20B69A97AA98BA99CA90E9438029E
:102B6000DC01CB0198AB8FA78FA598A99CA78BA759
:102B70008BA59CA50197F1F79CA78BA70C94A20BA2
:102B8000FE01EC58FF4F20813181428153816481E5
:102B9000758186819781D901FE01EC58FF4F208510
:102BA0003185428553856485758586859785C901FC
:102BB0008D01081B190BC8010E94BB2680E090E024
:102BC000A6E9B3E48FA398A7A9A7BAA76FA178A590
:102BD00089A59AA520E030E04AE755E40E9409055E
:102BE000DC01CB018BA39CA3ADA3BEA36BA17CA1F5
:102BF0008DA19EA120E030E040E85FE30E940F0736
:102C000088232CF481E090E09AA389A340C06BA1B3
:102C10007CA18DA19EA120E03FEF4FE757E40E94E9
:102C2000AF06181654F56FA178A589A59AA520E0DE
:102C300030E040E251E40E940905DC01CB01BC0117
:102C4000CD010E943802DC01CB019AA389A30FC0F9
:102C500080E991E098A38F8F8F8D98A10197F1F76C
:102C600098A38F8F89A19AA101979AA389A389A17B
:102C70009AA1009769F70C94A20B6BA17CA18DA17E
:102C80009EA10E943802DC01CB019AA389A389A1ED
:102C90009AA19E8F8D8F8D8D9E8D0197F1F79E8FBE
:102CA0008D8F0C94A20BFE01EC58FF4FA080B180D9
:102CB000C280D380E480F58006811781FE01EC5844
:102CC000FF4F2084318442845384648475848684D5
:102CD00097842A2D3B2D4C2D5D2D6E2D7F2D802F21
:102CE000912FA22CB32CC42CD52CE62CF72C082D1C
:102CF000192D0E94BE00222E332E442E552E662EF4
:102D0000772E882E992EA22CB32CC42CD52CE62CF1
:102D1000F72C082D192D2A2D3B2D4C2D5D2D6E2DB8
:102D20007F2D802F912F0E946402DC01CB01BC011A
:102D3000CD010E94DE2680E090E0A6E9B3E4898F11
:102D40009A8FAB8FBC8F698D7A8D8B8D9C8D20E097
:102D500030E04AE755E40E940905DC01CB018D8B88
:102D60009E8BAF8BB88F6D897E898F89988D20E07F
:102D700030E040E85FE30E940F0788232CF481E0F5
:102D800090E09C8B8B8B40C06D897E898F89988D5C
:102D900020E03FEF4FE757E40E94AF06181654F5C6
:102DA000698D7A8D8B8D9C8D20E030E040E251E47E
:102DB0000E940905DC01CB01BC01CD010E94380253
:102DC000DC01CB019C8B8B8B0FC080E991E09A8B4F
:102DD000898B89899A890197F1F79A8B898B8B89DD
:102DE0009C8901979C8B8B8B8B899C89009769F7B9
:102DF0000C94A20B6D897E898F89988D0E94380270
:102E0000DC01CB019C8B8B8B8B899C89988B8F876A
:102E10008F8598890197F1F7988B8F870C94A20B77
:102E2000FE01EC58FF4FA080B180C280D380E480C7
:102E3000F580068117812A2D3B2D4C2D5D2D6E2DA1
:102E40007F2D802F912F0E9464023B014C01FE01D7
:102E5000EC58FF4FA084B184C284D384E484F58409
:102E6000068517852A2D3B2D4C2D5D2D6E2D7F2D32
:102E7000802F912F0E9464029B01AC01C401B30119
:102E80000E940306DC01CB01BC01CD010E94DE26BD
:102E900080E090E0A6E9B3E48B879C87AD87BE878E
:102EA0006B857C858D859E8520E030E04AE755E482
:102EB0000E940905DC01CB018F839887A987BA8717
:102EC0006F81788589859A8520E030E040E85FE36E
:102ED0000E940F0788232CF481E090E09E838D836D
:102EE00040C06F81788589859A8520E03FEF4FE764
:102EF00057E40E94AF06181654F56B857C858D85C6
:102F00009E8520E030E040E251E40E940905DC01AA
:102F1000CB01BC01CD010E943802DC01CB019E83B4
:102F20008D830FC080E991E09C838B838B819C8192
:102F30000197F1F79C838B838D819E8101979E83FE
:102F40008D838D819E81009769F70C94A20B6F8110
:102F5000788589859A850E943802DC01CB019E83A1
:102F60008D838D819E819A83898389819A8101973E
:102F7000F1F79A8389830C94A20BDF93CF9300D04F
:102F800000D00F92CDB7DEB789836A834B838A81E5
:102F9000883008F0D5C08981843008F0D1C089819B
:102FA000282F30E03D832C838C819D8181309105D9
:102FB00009F443C02C813D81223031052CF48C81F1
:102FC0009D81009771F0BCC02C813D81223031057C
:102FD00009F45FC08C819D818330910509F485C01F
:102FE000AFC08B818130A1F4AAE3B0E0EAE3F0E066
:102FF0008081482F8A81282F30E081E090E0022EE6
:1030000002C0880F991F0A94E2F7842B8C9398C012
:10301000AAE3B0E0EAE3F0E08081482F8A81282F1C
:1030200030E081E090E0022E02C0880F991F0A94E0
:10303000E2F7809584238C9383C08B818130A1F447
:10304000A7E3B0E0E7E3F0E08081482F8A81282FF2
:1030500030E081E090E0022E02C0880F991F0A94B0
:10306000E2F7842B8C936CC0A7E3B0E0E7E3F0E0D9
:103070008081482F8A81282F30E081E090E0022E65
:1030800002C0880F991F0A94E2F7809584238C93DD
:1030900057C08B818130A1F4A4E3B0E0E4E3F0E019
:1030A0008081482F8A81282F30E081E090E0022E35
:1030B00002C0880F991F0A94E2F7842B8C9340C0BA
:1030C000A4E3B0E0E4E3F0E08081482F8A81282F78
:1030D00030E081E090E0022E02C0880F991F0A9430
:1030E000E2F7809584238C932BC08B818130A1F4EF
:1030F000A1E3B0E0E1E3F0E08081482F8A81282F4E
:1031000030E081E090E0022E02C0880F991F0A94FF
:10311000E2F7842B8C9314C0A1E3B0E0E1E3F0E08C
:103120008081482F8A81282F30E081E090E0022EB4
:1031300002C0880F991F0A94E2F7809584238C932C
:103140000F900F900F900F900F90CF91DF910895F7
:10315000DF93CF9300D000D00F92CDB7DEB7898335
:103160006A834B838A81883008F0D5C08981843096
:1031700008F0D1C08981282F30E03D832C838C81D9
:103180009D818130910509F443C02C813D8122301D
:1031900031052CF48C819D81009771F0BCC02C818D
:1031A0003D812230310509F45FC08C819D818330DF
:1031B000910509F485C0AFC08B818130A1F4ABE3E8
:1031C000B0E0EBE3F0E08081482F8A81282F30E0E7
:1031D00081E090E0022E02C0880F991F0A94E2F766
:1031E000842B8C9398C0ABE3B0E0EBE3F0E08081FC
:1031F000482F8A81282F30E081E090E0022E02C023
:10320000880F991F0A94E2F7809584238C9383C0DA
:103210008B818130A1F4A8E3B0E0E8E3F0E08081A5
:10322000482F8A81282F30E081E090E0022E02C0F2
:10323000880F991F0A94E2F7842B8C936CC0A8E343
:10324000B0E0E8E3F0E08081482F8A81282F30E069
:1032500081E090E0022E02C0880F991F0A94E2F7E5
:10326000809584238C9357C08B818130A1F4A5E392
:10327000B0E0E5E3F0E08081482F8A81282F30E03C
:1032800081E090E0022E02C0880F991F0A94E2F7B5
:10329000842B8C9340C0A5E3B0E0E5E3F0E08081AF
:1032A000482F8A81282F30E081E090E0022E02C072
:1032B000880F991F0A94E2F7809584238C932BC082
:1032C0008B818130A1F4A2E3B0E0E2E3F0E0808101
:1032D000482F8A81282F30E081E090E0022E02C042
:1032E000880F991F0A94E2F7842B8C9314C0A2E3F1
:1032F000B0E0E2E3F0E08081482F8A81282F30E0BF
:1033000081E090E0022E02C0880F991F0A94E2F734
:10331000809584238C930F900F900F900F900F90B7
:10332000CF91DF910895DF93CF9300D000D00F921B
:10333000CDB7DEB78A836B8319828B81883008F022
:1033400084C08A81843008F080C08A81282F30E0D0
:103350003D832C834C815D814130510579F18C8115
:103360009D818230910534F42C813D8121153105F8
:1033700069F06BC04C815D8142305105B9F18C819F
:103380009D818330910509F449C05FC0E9E3F0E015
:103390008081282F30E08B81882F90E0A90102C026
:1033A000559547958A95E2F7CA01817090708823F8
:1033B00019F081E0898349C0198247C0E6E3F0E053
:1033C0008081282F30E08B81882F90E0A90102C0F6
:1033D000559547958A95E2F7CA01817090708823C8
:1033E00019F081E0898331C019822FC0E3E3F0E056
:1033F0008081282F30E08B81882F90E0A90102C0C6
:10340000559547958A95E2F7CA0181709070882397
:1034100019F081E0898319C0198217C0E0E3F0E058
:103420008081282F30E08B81882F90E0A90102C095
:10343000559547958A95E2F7CA0181709070882367
:1034400019F081E0898301C0198289810F900F9062
:103450000F900F900F90CF91DF910895DF93CF934E
:1034600000D000D0CDB7DEB789836A8389818430EC
:1034700090F58981282F30E03C832B838B819C81C0
:1034800081309105D1F02B813C81223031052CF423
:103490008B819C81009761F01EC02B813C81223082
:1034A000310581F08B819C818330910581F013C0BF
:1034B000EAE3F0E08A8180830EC0E7E3F0E08A81EE
:1034C000808309C0E4E3F0E08A81808304C0E1E303
:1034D000F0E08A8180830F900F900F900F90CF9132
:1034E000DF910895DF93CF9300D000D0CDB7DEB742
:1034F00089836A838981843090F58981282F30E01F
:103500003C832B838B819C8181309105D1F02B8171
:103510003C81223031052CF48B819C81009761F035
:103520001EC02B813C812230310581F08B819C8132
:103530008330910581F013C0EBE3F0E08A81808352
:103540000EC0E8E3F0E08A81808309C0E5E3F0E0A3
:103550008A81808304C0E2E3F0E08A8180830F9057
:103560000F900F900F90CF91DF910895DF93CF933D
:1035700000D000D0CDB7DEB78A8319828A8184302B
:1035800090F58A81282F30E03C832B838B819C81AE
:1035900081309105D1F02B813C81223031052CF412
:1035A0008B819C81009761F01EC02B813C81223071
:1035B000310581F08B819C818330910581F013C0AE
:1035C000E9E3F0E0808189830EC0E6E3F0E08081EA
:1035D000898309C0E3E3F0E08081898304C0E0E3EC
:1035E000F0E08081898389810F900F900F900F9078
:1035F000CF91DF910895DF93CF93CDB7DEB760977A
:103600000FB6F894DEBF0FBECDBF81E064E040E0AE
:103610000E94BD1781E065E040E00E94BD1781E097
:1036200066E040E00E94BD1781E067E040E00E9454
:10363000BD1783E062E040E00E94BD1783E063E0D5
:1036400040E00E94BD1783E064E040E00E94BD17A7
:1036500083E065E040E00E94BD171F86B4C08F85FF
:10366000982F9C5F81E0692F41E00E94BD178F85F4
:10367000982F9C5F81E0692F40E00E94A818188A6B
:1036800022C08889982F9E5F83E0692F0E9493193A
:103690008823B1F48F85882F90E0880F991F880FB9
:1036A000991F982F8889890F8F5F0E94E81B609669
:1036B0000FB6F894DEBF0FBECDBFCF91DF91089556
:1036C00088898F5F888B88898430D8F28F85982F7E
:1036D0009C5F81E0692F40E00E94BD1780E090E090
:1036E000A0EAB0E48B879C87AD87BE876B857C851D
:1036F0008D859E8520E030E04AE755E40E9409056B
:10370000DC01CB018F839887A987BA876F81788581
:1037100089859A8520E030E040E85FE30E940F074A
:1037200088232CF481E090E09E838D833FC06F81DD
:10373000788589859A8520E03FEF4FE757E40E941E
:10374000AF0618164CF56B857C858D859E8520E02F
:1037500030E040E251E40E940905DC01CB01BC01EC
:10376000CD010E943802DC01CB019E838D830FC006
:1037700080E991E09C838B838B819C810197F1F799
:103780009C838B838D819E8101979E838D838D8108
:103790009E81009769F714C06F81788589859A8525
:1037A0000E943802DC01CB019E838D838D819E8136
:1037B0009A83898389819A810197F1F79A83898312
:1037C0008F858F5F8F878F85843008F448CF45CFF2
:1037D000DF93CF9300D000D0CDB7DEB78A831982B4
:1037E0008A81282F30E03C832B838B819C81883019
:1037F000910509F470C02B813C81293031055CF5BD
:103800008B819C818430910509F459C02B813C81C6
:10381000253031059CF48B819C818230910509F41F
:1038200048C02B813C81233031050CF045C08B8191
:103830009C818130910509F439C067C02B813C819E
:103840002630310509F441C08B819C818730910578
:103850000CF03EC037C02B813C812C30310509F47F
:1038600046C08B819C818D3091055CF42B813C811D
:103870002A303105B1F18B819C818B309105A4F503
:103880002DC02B813C812E303105B9F18B819C817B
:103890008E3091057CF12B813C812F30310579F1FF
:1038A0008B819C818031910569F12FC087E08983EC
:1038B0002EC088E089832BC089E0898328C085E2F7
:1038C000898325C084E0898322C085E089831FC065
:1038D00086E089831CC08AE2898319C081E08983DC
:1038E00016C082E0898313C083E0898310C08DE213
:1038F00089830DC083E489830AC0198208C08DE3DF
:10390000898305C08BE2898302C08A81898389818A
:103910000F900F900F900F90CF91DF910895DF934C
:10392000CF93CDB7DEB72E970FB6F894DEBF0FBE9C
:10393000CDBF80E061E041E00E94BD1780E062E021
:1039400041E00E94BD1780E090E0A0EAB1E48B87DF
:103950009C87AD87BE876B857C858D859E8520E0A5
:1039600030E04AE755E40E940905DC01CB018F8372
:103970009887A987BA876F81788589859A8520E09D
:1039800030E040E85FE30E940F0788232CF481E0D9
:1039900090E09E838D833FC06F81788589859A856D
:1039A00020E03FEF4FE757E40E94AF0618164CF5B2
:1039B0006B857C858D859E8520E030E040E251E47A
:1039C0000E940905DC01CB01BC01CD010E94380237
:1039D000DC01CB019E838D830FC080E991E09C8345
:1039E0008B838B819C810197F1F79C838B838D81E5
:1039F0009E8101979E838D838D819E81009769F7BB
:103A000014C06F81788589859A850E943802DC010F
:103A1000CB019E838D838D819E819A838983898149
:103A20009A810197F1F79A83898380E063E041E00E
:103A30000E94BD1780E064E041E00E94BD1780E075
:103A400065E041E00E94BD1780E066E041E00E9431
:103A5000BD1783E30E94411D82E30E94411D88E25D
:103A60000E94411D8CE00E94411D81E00E94411D89
:103A70002E960FB6F894DEBF0FBECDBFCF91DF916B
:103A800008950F931F93DF93CF93CDB7DEB7C3563F
:103A9000D0400FB6F894DEBF0FBECDBFFE01ED598A
:103AA000FF4F808380E061E040E00E94A818FE01A3
:103AB000E15AFF4F80E090E0A0E8BFE3808391836C
:103AC000A283B3838E01055A1F4FFE01E15AFF4FB7
:103AD000608171818281938120E030E04AE755E482
:103AE0000E940905DC01CB01F80180839183A28348
:103AF000B383FE01E55AFF4F60817181828193811A
:103B000020E030E040E85FE30E940F07882344F4A0
:103B1000FE01E75AFF4F81E090E09183808364C00B
:103B2000FE01E55AFF4F608171818281938120E01F
:103B30003FEF4FE757E40E94AF0618160CF043C062
:103B4000FE01E15AFF4F608171818281938120E003
:103B500030E040E251E40E940905DC01CB018E0116
:103B6000075A1F4FBC01CD010E943802DC01CB0176
:103B7000F801918380831FC0FE01E95AFF4F80E95D
:103B800091E091838083FE01E95AFF4F808191810A
:103B90000197F1F7FE01E95AFF4F91838083DE011F
:103BA000A75ABF4FFE01E75AFF4F808191810197CD
:103BB00011969C938E93FE01E75AFF4F808191816D
:103BC0000097D1F627C08E01075A1F4FFE01E55A14
:103BD000FF4F60817181828193810E943802DC01F4
:103BE000CB01F80191838083DE01AB5ABF4FFE0108
:103BF000E75AFF4F808191818D939C93FE01EB5A90
:103C0000FF4F808191810197F1F7FE01EB5AFF4F41
:103C10009183808380E062E041E00E94A818FE0169
:103C2000EF5AFF4F80E090E0A0E8BFE380839183EC
:103C3000A283B3838E01035B1F4FFE01EF5AFF4F38
:103C4000608171818281938120E030E04AE755E410
:103C50000E940905DC01CB01F80180839183A283D6
:103C6000B383FE01E35BFF4F6081718182819381A9
:103C700020E030E040E85FE30E940F07882344F42F
:103C8000FE01E55BFF4F81E090E09183808364C09B
:103C9000FE01E35BFF4F608171818281938120E0AF
:103CA0003FEF4FE757E40E94AF0618160CF043C0F1
:103CB000FE01EF5AFF4F608171818281938120E084
:103CC00030E040E251E40E940905DC01CB018E01A5
:103CD000055B1F4FBC01CD010E943802DC01CB0106
:103CE000F801918380831FC0FE01E75BFF4F80E9ED
:103CF00091E091838083FE01E75BFF4F808191819A
:103D00000197F1F7FE01E75BFF4F91838083DE01AE
:103D1000A55BBF4FFE01E55BFF4F8081918101975D
:103D200011969C938E93FE01E55BFF4F80819181FC
:103D30000097D1F627C08E01055B1F4FFE01E35BA4
:103D4000FF4F60817181828193810E943802DC0182
:103D5000CB01F80191838083DE01A95BBF4FFE0197
:103D6000E55BFF4F808191818D939C93FE01E95B20
:103D7000FF4F808191810197F1F7FE01E95BFF4FD1
:103D800091838083FE01ED59FF4F8081882F90E061
:103D90008071907095958795959587959595879560
:103DA00095958795982F80E063E0492F0E94A81889
:103DB000FE01ED59FF4F8081882F90E08072907056
:103DC00095958795959587959595879595958795DB
:103DD00095958795982F80E064E0492F0E94A81858
:103DE000FE01ED59FF4F8081882F90E08074907024
:103DF000082E892F000C881F990B000C881F991F13
:103E0000982F80E065E0492F0E94A818FE01ED5927
:103E1000FF4F8081982F991F9927991F80E066E0B6
:103E2000492F0E94A818FE01ED5BFF4F80E090E053
:103E3000A0E8BFE380839183A283B3838E01015CFA
:103E40001F4FFE01ED5BFF4F608171818281938185
:103E500020E030E04AE755E40E940905DC01CB018F
:103E6000F80180839183A283B383FE01FF96608172
:103E700071818281938120E030E040E85FE30E941D
:103E80000F0788232CF481E090E09EAF8DAF46C0F1
:103E9000FE01FF96608171818281938120E03FEF76
:103EA0004FE757E40E94AF06181664F5FE01ED5B7C
:103EB000FF4F608171818281938120E030E040E298
:103EC00051E40E940905DC01CB01BC01CD010E9437
:103ED0003802DC01CB019EAF8DAF0FC080E991E0CD
:103EE0009CAF8BAF8BAD9CAD0197F1F79CAF8BAFC7
:103EF0008DAD9EAD01979EAF8DAF8DAD9EAD009700
:103F000069F716C0FE01FF966081718182819381FD
:103F10000E943802DC01CB019EAF8DAF8DAD9EAD0E
:103F20009AAF89AF89AD9AAD0197F1F79AAF89AF92
:103F300080E062E040E00E94A81880E090E0A0E805
:103F4000BFE38DAB9EABAFABB8AF6DA97EA98FA918
:103F500098AD20E030E04AE755E40E940905DC0115
:103F6000CB0189AB9AABABABBCAB69A97AA98BA9E6
:103F70009CA920E030E040E85FE30E940F0788231F
:103F80002CF481E090E098AB8FA73FC069A97AA993
:103F90008BA99CA920E03FEF4FE757E40E94AF06B2
:103FA00018164CF56DA97EA98FA998AD20E030E0D8
:103FB00040E251E40E940905DC01CB01BC01CD01C6
:103FC0000E943802DC01CB0198AB8FA70FC080E9BB
:103FD00091E09EA78DA78DA59EA50197F1F79EA7BD
:103FE0008DA78FA598A9019798AB8FA78FA598A9A2
:103FF000009769F714C069A97AA98BA99CA90E94A6
:104000003802DC01CB0198AB8FA78FA598A99CA79C
:104010008BA78BA59CA50197F1F79CA78BA780E0A8
:1040200062E041E00E94A81880E090E0A0E8BFE3D1
:104030008FA398A7A9A7BAA76FA178A589A59AA5C4
:1040400020E030E04AE755E40E940905DC01CB019D
:104050008BA39CA3ADA3BEA36BA17CA18DA19EA1AC
:1040600020E030E040E85FE30E940F0788232CF453
:1040700081E090E09AA389A33FC06BA17CA18DA1B0
:104080009EA120E03FEF4FE757E40E94AF061816CD
:104090004CF56FA178A589A59AA520E030E040E213
:1040A00051E40E940905DC01CB01BC01CD010E9455
:1040B0003802DC01CB019AA389A30FC080E991E00B
:1040C00098A38F8F8F8D98A10197F1F798A38F8F69
:1040D00089A19AA101979AA389A389A19AA100977E
:1040E00069F714C06BA17CA18DA19EA10E9438022A
:1040F000DC01CB019AA389A389A19AA19E8F8D8F00
:104100008D8D9E8D0197F1F79E8F8D8FFE01ED595C
:10411000FF4F8081982F917080E063E0492F0E94CB
:10412000A818FE01ED59FF4F8081882F90E0827022
:10413000907095958795982F80E064E0492F0E94B4
:10414000A818FE01ED59FF4F8081882F90E0847000
:1041500090709595879595958795982F80E065E067
:10416000492F0E94A818FE01ED59FF4F8081882F2A
:1041700090E0887090709595879595958795959521
:104180008795982F80E066E0492F0E94A81880E06C
:1041900090E0A0E8BFE3898F9A8FAB8FBC8F698DC9
:1041A0007A8D8B8D9C8D20E030E04AE755E40E94AB
:1041B0000905DC01CB018D8B9E8BAF8BB88F6D8990
:1041C0007E898F89988D20E030E040E85FE30E948F
:1041D0000F0788232CF481E090E09C8B8B8B3FC0F1
:1041E0006D897E898F89988D20E03FEF4FE757E4F6
:1041F0000E94AF0618164CF5698D7A8D8B8D9C8DBB
:1042000020E030E040E251E40E940905DC01CB01EE
:10421000BC01CD010E943802DC01CB019C8B8B8B51
:104220000FC080E991E09A8B898B89899A890197DF
:10423000F1F79A8B898B8B899C8901979C8B8B8B4F
:104240008B899C89009769F714C06D897E898F8955
:10425000988D0E943802DC01CB019C8B8B8B8B8963
:104260009C89988B8F878F8598890197F1F7988B18
:104270008F8780E062E040E00E94A81880E090E034
:10428000A0E8BFE38B879C87AD87BE876B857C8565
:104290008D859E8520E030E04AE755E40E940905BF
:1042A000DC01CB018F839887A987BA876F817885D6
:1042B00089859A8520E030E040E85FE30E940F079F
:1042C00088232CF481E090E09E838D833FC06F8132
:1042D000788589859A8520E03FEF4FE757E40E9473
:1042E000AF0618164CF56B857C858D859E8520E084
:1042F00030E040E251E40E940905DC01CB01BC0141
:10430000CD010E943802DC01CB019E838D830FC05A
:1043100080E991E09C838B838B819C810197F1F7ED
:104320009C838B838D819E8101979E838D838D815C
:104330009E81009769F714C06F81788589859A8579
:104340000E943802DC01CB019E838D838D819E818A
:104350009A83898389819A810197F1F79A83898366
:10436000CD59DF4F0FB6F894DEBF0FBECDBFCF9152
:10437000DF911F910F9108950F931F93DF93CF93B8
:10438000CDB7DEB7C356D0400FB6F894DEBF0FBE30
:10439000CDBFFE01ED59FF4F808380E061E041E039
:1043A0000E94A818FE01E15AFF4F80E090E0A0E8CB
:1043B000BFE380839183A283B3838E01055A1F4F8D
:1043C000FE01E15AFF4F608171818281938120E07B
:1043D00030E04AE755E40E940905DC01CB01F80111
:1043E00080839183A283B383FE01E55AFF4F6081EE
:1043F00071818281938120E030E040E85FE30E9498
:104400000F07882344F4FE01E75AFF4F81E090E054
:104410009183808364C0FE01E55AFF4F6081718102
:104420008281938120E03FEF4FE757E40E94AF067F
:1044300018160CF043C0FE01E15AFF4F60817181F4
:104440008281938120E030E040E251E40E9409053E
:10445000DC01CB018E01075A1F4FBC01CD010E9428
:104460003802DC01CB01F801918380831FC0FE017B
:10447000E95AFF4F80E991E091838083FE01E95A78
:10448000FF4F808191810197F1F7FE01E95AFF4FBB
:1044900091838083DE01A75ABF4FFE01E75AFF4F89
:1044A00080819181019711969C938E93FE01E75A2A
:1044B000FF4F808191810097D1F627C08E01075A66
:1044C0001F4FFE01E55AFF4F608171818281938108
:1044D0000E943802DC01CB01F80191838083DE0168
:1044E000AB5ABF4FFE01E75AFF4F808191818D93F8
:1044F0009C93FE01EB5AFF4F808191810197F1F768
:10450000FE01EB5AFF4F9183808380E062E041E03F
:104510000E94A818FE01EF5AFF4F80E090E0A0E84B
:10452000BFE380839183A283B3838E01035B1F4F1C
:10453000FE01EF5AFF4F608171818281938120E0FB
:1045400030E04AE755E40E940905DC01CB01F8019F
:1045500080839183A283B383FE01E35BFF4F60817D
:1045600071818281938120E030E040E85FE30E9426
:104570000F07882344F4FE01E55BFF4F81E090E0E4
:104580009183808364C0FE01E35BFF4F6081718192
:104590008281938120E03FEF4FE757E40E94AF060E
:1045A00018160CF043C0FE01EF5AFF4F6081718175
:1045B0008281938120E030E040E251E40E940905CD
:1045C000DC01CB018E01055B1F4FBC01CD010E94B8
:1045D0003802DC01CB01F801918380831FC0FE010A
:1045E000E75BFF4F80E991E091838083FE01E75B09
:1045F000FF4F808191810197F1F7FE01E75BFF4F4B
:1046000091838083DE01A55BBF4FFE01E55BFF4F19
:1046100080819181019711969C938E93FE01E55BB9
:10462000FF4F808191810097D1F627C08E01055BF5
:104630001F4FFE01E35BFF4F608171818281938197
:104640000E943802DC01CB01F80191838083DE01F6
:10465000A95BBF4FFE01E55BFF4F808191818D9388
:104660009C93FE01E95BFF4F808191810197F1F7F7
:10467000FE01E95BFF4F91838083FE01ED59FF4FFF
:104680008081882F90E080719070959587959595A1
:1046900087959595879595958795982F80E063E008
:1046A000492F0E94A818FE01ED59FF4F8081882FE5
:1046B00090E08072907095958795959587959595E2
:1046C00087959595879595958795982F80E064E0D7
:1046D000492F0E94A818FE01ED59FF4F8081882FB5
:1046E00090E080749070082E892F000C881F990B21
:1046F000000C881F991F982F80E065E0492F0E94C9
:10470000A818FE01ED59FF4F8081982F991F992716
:10471000991F80E066E0492F0E94A818FE01ED5B1A
:10472000FF4F80E090E0A0E8BFE380839183A28305
:10473000B3838E01015C1F4FFE01ED5BFF4F608173
:1047400071818281938120E030E04AE755E40E9444
:104750000905DC01CB01F80180839183A283B38337
:10476000FE01FF96608171818281938120E030E0BB
:1047700040E85FE30E940F0788232CF481E090E07B
:104780009EAF8DAF46C0FE01FF9660817181828130
:10479000938120E03FEF4FE757E40E94AF061816E1
:1047A00064F5FE01ED5BFF4F608171818281938131
:1047B00020E030E040E251E40E940905DC01CB0139
:1047C000BC01CD010E943802DC01CB019EAF8DAF50
:1047D0000FC080E991E09CAF8BAF8BAD9CAD019792
:1047E000F1F79CAF8BAF8DAD9EAD01979EAF8DAFB6
:1047F0008DAD9EAD009769F716C0FE01FF966081F2
:104800007181828193810E943802DC01CB019EAFCD
:104810008DAF8DAD9EAD9AAF89AF89AD9AAD019741
:10482000F1F79AAF89AF80E062E040E00E94A818FB
:1048300080E090E0A0E8BFE38DAB9EABAFABB8AF3C
:104840006DA97EA98FA998AD20E030E04AE755E434
:104850000E940905DC01CB0189AB9AABABABBCABC9
:1048600069A97AA98BA99CA920E030E040E85FE320
:104870000E940F0788232CF481E090E098AB8FA76B
:104880003FC069A97AA98BA99CA920E03FEF4FE717
:1048900057E40E94AF0618164CF56DA97EA98FA9A2
:1048A00098AD20E030E040E251E40E940905DC01CF
:1048B000CB01BC01CD010E943802DC01CB0198ABD9
:1048C0008FA70FC080E991E09EA78DA78DA59EA51B
:1048D0000197F1F79EA78DA78FA598A9019798AB8F
:1048E0008FA78FA598A9009769F714C069A97AA91D
:1048F0008BA99CA90E943802DC01CB0198AB8FA741
:104900008FA598A99CA78BA78BA59CA50197F1F7CC
:104910009CA78BA780E062E041E00E94A81880E09D
:1049200090E0A0E8BFE38FA398A7A9A7BAA76FA1BB
:1049300078A589A59AA520E030E04AE755E40E94D1
:104940000905DC01CB018BA39CA3ADA3BEA36BA186
:104950007CA18DA19EA120E030E040E85FE30E94B1
:104960000F0788232CF481E090E09AA389A33FC02D
:104970006BA17CA18DA19EA120E03FEF4FE757E402
:104980000E94AF0618164CF56FA178A589A59AA5C7
:1049900020E030E040E251E40E940905DC01CB0157
:1049A000BC01CD010E943802DC01CB019AA389A38E
:1049B0000FC080E991E098A38F8F8F8D98A1019708
:1049C000F1F798A38F8F89A19AA101979AA389A340
:1049D00089A19AA1009769F714C06BA17CA18DA150
:1049E0009EA10E943802DC01CB019AA389A389A170
:1049F0009AA19E8F8D8F8D8D9E8D0197F1F79E8F41
:104A00008D8FFE01ED59FF4F8081982F917080E0CE
:104A100063E0492F0E94A818FE01ED59FF4F8081E5
:104A2000882F90E08270907095958795982F80E000
:104A300064E0492F0E94A818FE01ED59FF4F8081C4
:104A4000882F90E0847090709595879595958795BF
:104A5000982F80E065E0492F0E94A818FE01ED59CB
:104A6000FF4F8081882F90E0887090709595879592
:104A70009595879595958795982F80E066E0492FC5
:104A80000E94A81880E090E0A0E8BFE3898F9A8F89
:104A9000AB8FBC8F698D7A8D8B8D9C8D20E030E043
:104AA0004AE755E40E940905DC01CB018D8B9E8B02
:104AB000AF8BB88F6D897E898F89988D20E030E02B
:104AC00040E85FE30E940F0788232CF481E090E028
:104AD0009C8B8B8B3FC06D897E898F89988D20E060
:104AE0003FEF4FE757E40E94AF0618164CF5698D6B
:104AF0007A8D8B8D9C8D20E030E040E251E40E9465
:104B00000905DC01CB01BC01CD010E943802DC01AA
:104B1000CB019C8B8B8B0FC080E991E09A8B898BAA
:104B200089899A890197F1F79A8B898B8B899C895E
:104B300001979C8B8B8B8B899C89009769F714C09C
:104B40006D897E898F89988D0E943802DC01CB01A6
:104B50009C8B8B8B8B899C89988B8F878F85988971
:104B60000197F1F7988B8F8780E062E040E00E9428
:104B7000A81880E090E0A0E8BFE38B879C87AD8712
:104B8000BE876B857C858D859E8520E030E04AE779
:104B900055E40E940905DC01CB018F839887A98722
:104BA000BA876F81788589859A8520E030E040E872
:104BB0005FE30E940F0788232CF481E090E09E833E
:104BC0008D833FC06F81788589859A8520E03FEF8E
:104BD0004FE757E40E94AF0618164CF56B857C85AD
:104BE0008D859E8520E030E040E251E40E94090579
:104BF000DC01CB01BC01CD010E943802DC01CB01FC
:104C00009E838D830FC080E991E09C838B838B8191
:104C10009C810197F1F79C838B838D819E81019705
:104C20009E838D838D819E81009769F714C06F816B
:104C3000788589859A850E943802DC01CB019E83A4
:104C40008D838D819E819A83898389819A81019741
:104C5000F1F79A838983CD59DF4F0FB6F894DEBF01
:104C60000FBECDBFCF91DF911F910F910895DF93BC
:104C7000CF9300D00F92CDB7DEB79B838A83198282
:104C80000EC08981282F30E08A819B81FC01E20FD0
:104C9000F31F80810E94BC2189818F5F8983898174
:104CA000282F30E08A819B81FC01E20FF31F808175
:104CB000882339F70F900F900F90CF91DF910895CF
:104CC000DF93CF9300D000D00F92CDB7DEB78A83A9
:104CD0006B838A81282F30E03D832C838C819D81DA
:104CE00081309105C1F02C813D81223031052CF4B9
:104CF0008C819D81009761F019C02C813D8122300B
:104D0000310569F08C819D818330910561F00EC081
:104D10008B8189830BC08B81805C898307C08B81E9
:104D2000805F898303C08B81805B898389818068F0
:104D30000E94411D0F900F900F900F900F90CF91F8
:104D4000DF910895DF93CF9300D000D0CDB7DEB7C9
:104D500089836A835C834B8389816A810E94602690
:104D60008B819C810E9437260F900F900F900F909F
:104D7000CF91DF910895DF93CF93CDB7DEB76297E0
:104D80000FB6F894DEBF0FBECDBF9A8B898B898991
:104D90009A899E012F5F3F4FB9014AE050E00E947F
:104DA0008D27CE0101960E94372662960FB6F894A1
:104DB000DEBF0FBECDBFCF91DF9108950F931F933C
:104DC000DF93CF93CDB7DEB764970FB6F894DEBF0D
:104DD0000FBECDBF698B7A8B8B8B9C8B89899A890F
:104DE000AB89BC89BC01CD0146E050E023E030E056
:104DF000FE0131968F010E946C27CE0101960E9420
:104E0000372664960FB6F894DEBF0FBECDBFCF91A4
:104E1000DF911F910F910895DF93CF93CDB7DEB748
:104E200081E00E94411DCF91DF910895629FD001E2
:104E3000739FF001829FE00DF11D649FE00DF11D55
:104E4000929FF00D839FF00D749FF00D659FF00D04
:104E50009927729FB00DE11DF91F639FB00DE11DF1
:104E6000F91FBD01CF01112408952F923F924F9257
:104E70005F926F927F928F929F92AF92BF92CF92EA
:104E8000DF92EF92FF920F931F93CF93DF93CDB7F3
:104E9000DEB7CA1BDB0B0FB6F894DEBF0FBECDBF6B
:104EA00009942A88398848885F846E847D848C843C
:104EB0009B84AA84B984C884DF80EE80FD800C8145
:104EC0001B81AA81B981CE0FD11D0FB6F894DEBF28
:104ED0000FBECDBFED010895EF92FF920F931F9388
:104EE000F22FF02E47FD02C0E4E001C0E4E1242FE0
:104EF000332727FD309537FF03C0309521953F4F6D
:104F00004F2D512F0F2FEE2E0E94AE278F2D912F58
:104F10001F910F91FF90EF900895FB019F01E8947E
:104F20004230C4F04532B4F44A3029F497FB1EF401
:104F3000909581959F4F642F77270E94F829805D77
:104F40008A330CF0895D8193CB010097A1F716F4A9
:104F50005DE251931082C9010C94E829A9E0B0E008
:104F6000E4EBF7E20C9439276A01122FA02EBE2C35
:104F70002BE3201718F42CE3922E02C0902E93946A
:104F8000AE014F5F5F4F27E0092D0E941029BC0141
:104F90008981E82EFF24C70189709070019711F470
:104FA000ADE209C0B1FE02C0ABE205C0B0FC02C078
:104FB000A0E001C0A0E2E3FE3BC0AA2311F423E07D
:104FC00001C024E0211710F020E002C0121B212FA5
:104FD000EB2CB4FE02C0322F0AC0F601322F80E261
:104FE00002C0819331503323E1F7C20ED11CAA23B2
:104FF00019F0F601A1936F01F6013196E2FE05C0AA
:105000009EE4D6019C9381E404C09EE6D6019C9365
:1050100081E611968C9391833296DF01832F90E283
:1050200002C09D9381508823E1F7E30FF11D40C03A
:10503000E2FE42C0AA2311F423E001C024E02117BC
:1050400010F020E002C0121B212FEB2CB4FE02C096
:10505000922F0AC0F601922F80E202C081939150F4
:105060009923E1F7C20ED11CAA2319F0F601A193EE
:105070006F01F6013196E2FE08C089E4D6018C93F7
:105080008EE411968C9386E407C089E6D6018C9352
:105090008EE611968C9386E681833296DF01892F06
:1050A00020E202C02D9381508823E1F7E90FF11D22
:1050B00010822EEF3FEFAFC0161617061CF041E02E
:1050C00050E003C0AB014F5F5F4FAA2019F480E0AE
:1050D00090E003C08A2D90E0019620E030E0AA2302
:1050E00011F021E030E0240F351F280F391F812FE8
:1050F00090E02817390714F020E002C0121B212F7E
:105100004B2D50E0CA0180719070B4FC0DC0B3FC0F
:105110000BC0F601322F40E202C0419331503323DD
:10512000E1F7C20ED11C01C0322FAA2319F0F601FB
:10513000A1936F01892B11F0132F0AC0F601132FD1
:1051400080E302C0819311501123E1F7C30ED11CFB
:10515000092D060FBA8090E1892E912C8E209F2078
:10516000E4FE04C0F1E3BF1609F40150101614F078
:1051700001E003C0093008F008E09B0177FF02C09E
:1051800020E030E0CB010196821B930BFE013196AB
:10519000E80FF91F8EE2F82E3B01601A71088A2D84
:1051A00090E044275527481B590B8FEF2F3F3807B6
:1051B00019F4D601FD926D01621773072CF0621687
:1051C000730614F4808101C080E321503040319691
:1051D0002417350724F0D6018D936D01E6CF2617ED
:1051E000370749F4B5E3BB1528F0BB1621F4811449
:1051F000910409F481E3F6018193D601812F90E2B5
:1052000002C09C93815011968823D9F7E10FF11DBC
:10521000108220E030E0C9012996EEE00C94552779
:10522000283008F027E03327DA01990F311D87FD78
:10523000916000966105710539F432602E5F3D93EF
:1052400030E32A95E1F708959F3F30F080387105EB
:10525000610509F03C5F3C5F3D93913008F0806848
:10526000911DDF93CF931F930F93FF92EF92192F0E
:10527000987F9695E92F96959695E90FFF27E25529
:10528000FF4F99273327EE24FF24A701E70105905C
:105290000894079428F4360FE71EF81E491F511D85
:1052A000660F771F881F991F0694A1F70590079432
:1052B00028F4E70EF81E491F561FC11D770F881FDF
:1052C000991F661F0694A1F70590079428F4F80E1D
:1052D000491F561FC71FD11D880F991F661F771FB3
:1052E0000694A1F70590079420F4490F561FC71F95
:1052F000D81F990F661F771F881F0694A9F78491FE
:105300001095177041F0D695C79557954795F79426
:10531000E7941A95C1F7E4E5F0E0689415901591CB
:1053200035916591959105907FE27395E118F10AA9
:10533000430B560BC90BD009C0F7E10CF11E431FFC
:10534000561FC91FD01D7EF4703311F48A95E6CF25
:10535000E894015030F0080F0AF40027021708F40F
:10536000202F2395022F7A3328F079E37D932A9515
:10537000E9F710C07D932A9589F60694979567956D
:10538000379517951794E118F10A430B560BC90B83
:10539000D00998F023957E9173957A3308F070E3E5
:1053A0007C932013B8F77E9170617D9330F08395E4
:1053B00071E37D9370E32A95E1F71124EF90FF905C
:1053C0000F911F91CF91DF91992787FD90950895B7
:1053D000DC01FC01672F71917723E1F7329704C05C
:1053E0007C916D9370836291AE17BF07C8F30895E7
:1053F000AA1BBB1B51E107C0AA1FBB1FA617B707FB
:1054000010F0A61BB70B881F991F5A95A9F7809516
:0C5410009095BC01CD010895F894FFCFE9
:10541C0053696D706C650043616C63756C61746F7E
:10542C0072000000000000000000000102020303F3
:10543C00030304040404040404040505050505051C
:10544C0005050505050505050505060606060606FA
:10545C0006060606060606060606060606060606E0
:10546C0006060606060606060606070707070707CA
:10547C0007070707070707070707070707070707B0
:10548C0007070707070707070707070707070707A0
:10549C000707070707070707070707070707070790
:1054AC00070707070707070707070808080808087A
:1054BC000808080808080808080808080808080860
:1054CC000808080808080808080808080808080850
:1054DC000808080808080808080808080808080840
:1054EC000808080808080808080808080808080830
:1054FC000808080808080808080808080808080820
:10550C00080808080808080808080808080808080F
:10551C0008080808080808080808080808080808FF
:10552C00080808080808080808080000000000001F
:0A553C000000000000000000000065
:00000001FF
